:100000000C9446000C9465000C9465000C946500FB
:100010000C9465000C9465000C9465000C946500CC
:100020000C9465000C9499000C9465000C94650088
:100030000C947C020C948E020C9465000C94350296
:100040000C9465000C9465000C9465000C9465009C
:100050000C9465000C9465000C9465000C9465008C
:100060000C9465000C9465000C9465000C9465007C
:100070000C9465000C9465000C9465000C9465006C
:100080000C9465000C9465000C94650011241FBE4F
:10009000CFEFD0E1DEBFCDBF11E0A0E0B1E0E8E5F9
:1000A000F6E000E00BBF02C007900D92AA30B10746
:1000B000D9F711E0AAE0B1E001C01D92A731B10764
:1000C000E1F70E9467000C942A030C940000F89456
:1000D0000E9474000E948C000E9410020E942B015A
:1000E00078940E94AF01FDCF1BBA1ABA18BA17BA9A
:1000F00015BA14BA12BA11BA13B812B81092620033
:10010000E1E6F0E0108280818FEF808397B387BBB8
:1001100091B381BB17BE08958CE085BD14BC8EE3FE
:1001200083BD87B7806887BF8FEF8ABB8FE084BBB2
:1001300008951F920F920FB60F920BB60F921124D3
:100140002F933F935F936F937F938F939F93AF937F
:10015000BF93EF93FF9380910C0190910D01019655
:1001600090930D0180930C010197885E934009F0F4
:1001700040C010920D0110920C0180910A019091E3
:100180000B01019690930B0180930A0180519742D5
:1001900021F410920B0110920A0120910A01309172
:1001A0000B01C90160E177E20E94030368EE73E08E
:1001B0000E94030360930F01C90168EE73E00E947F
:1001C000030364E670E00E94030360931001C90119
:1001D00064E670E00E9403036AE070E00E9403039B
:1001E00060931101C9016AE070E00E9403038093EB
:1001F000120180910E018F5F80930E01843011F403
:1002000010920E018FE085BB20910E0130E0F901C4
:10021000E15FFE4FE081F0E0E050FF4F80818BBB5B
:1002200081E090E002C0880F991F2A95E2F780953F
:1002300085BBFF91EF91BF91AF919F918F917F917E
:100240006F915F913F912F910F900BBE0F900FBE5A
:100250000F901F9018951092900083E389B91BB8F6
:1002600086E08093950088E18AB908955D9BFECF72
:100270008CB908955F9BFECF8CB108955D9BFECF36
:100280009CB95D9BFECF8CB908955F9BFECF3CB1BE
:100290005F9BFECF2CB1932F80E030E0282B392BD1
:1002A000C9010895FC0192818AE2828313829F3101
:1002B000B1F1903280F4943131F1953130F49A30CB
:1002C000D1F09B3009F047C01AC0953101F19E3141
:1002D00009F041C020C0923371F1933328F4983271
:1002E00011F19932C1F523C0943369F1943338F197
:1002F000953389F52CC0CF010E94B7020895CF0134
:100300000E94B8020895CF010E94F3020895CF0120
:100310000E94E4020895CF010E94C8020895CF010F
:100320000E94D0020895CF010E94D6020895CF0105
:100330000E94DE020895CF010E94C0020895CF01FD
:100340000E94C2020895CF010E94C4020895CF0105
:100350000E94C602089585E6828313820895CF9293
:10036000DF92EF92FF920F931F93DF93CF93CDB75E
:10037000DEB764970FB6F894DEBF0FBECDBF0E9404
:1003800045015F9BFECF2CB15F9BFECF9A83898393
:100390002B838CB18C8385E0C82ED12CCC0EDD1E36
:1003A000760100E010E008C00E944501F70181934A
:1003B00091937F010F5F1F4F8C8190E00817190701
:1003C0009CF3CE0101960E94520189819A810E947C
:1003D0003E018B815D9BFECF8CB98C815D9BFECFF6
:1003E0008CB900E010E008C0F601819191916F0195
:1003F0000E943E010F5F1F4F8C8190E00817190784
:100400009CF364960FB6F894DEBF0FBECDBFCF91BC
:10041000DF911F910F91FF90EF90DF90CF900895A3
:10042000909891988FE083BF12BE8EE381BF87B70B
:10043000826087BF1DBC1CBC80E29EE497BD86BD68
:100440008CED95E09BBD8ABD99BD88BD8FEF88BBC3
:100450001FBC82E18EBD87B7886187BF16BEE2E60A
:10046000F0E080818068808308951F920F920FB61C
:100470000F9211242F933F938F939F9320911301F9
:1004800030911401809115019091160128173907B8
:1004900051F1209113013091140180911501909137
:1004A0001601821793075CF480916200826080934A
:1004B0006200809113019091140101970AC080910C
:1004C00062008D7F809362008091130190911401EE
:1004D000019690931401809313018091620091E042
:1004E0008927809362009F918F913F912F910F9068
:1004F0000FBE0F901F9018951F920F920FB60F927C
:1005000011248F939F9388B390E2892788BB9F9192
:100510008F910F900FBE0F901F9018951F920F9202
:100520000FB60F9211248F939F9388B390E489277D
:1005300088BB9F918F910F900FBE0F901F901895C1
:100540009093160180931501089520911301309125
:100550001401809115019091160128173907A9F708
:1005600008952091130130911401C901089508954F
:10057000E2E6F0E080818F778083919890980895EB
:10058000909A089590980895919A08959198089551
:10059000FC0181E083838AB59BB5958384830895AC
:1005A000FC01848195819BBD8ABD0895FC0181E099
:1005B000838388B599B5958384830895FC018481EC
:1005C000958199BD88BD08950F931F938C010E945A
:1005D000A502F801848195810E94A0020E94A502D3
:1005E0001F910F9108950F931F938C010E94A502F4
:1005F00081E0F80183830E94B102F801958384832E
:100600001F910F91089597FB092E07260AD077FDB9
:1006100004D00CD006D000201AF4709561957F4F5D
:100620000895F6F7909581959F4F0895AA1BBB1BDF
:1006300051E107C0AA1FBB1FA617B70710F0A61BE2
:10064000B70B881F991F5A95A9F780959095BC0103
:08065000CD010895F894FFCFDD
:0A0658003F065B4F666D7D277F674C
:00000001FF
