:100000000C944C000C946B000C946B000C946B00E3
:100010000C946B000C946B000C946B000C946B00B4
:100020000C946B000C946B000C946B000C946B00A4
:100030000C946B000C946B000C946B000C94DA0124
:100040000C946B000C946B000C946B000C946B0084
:100050000C946B000C946B000C946B000C946B0074
:100060000C946B000C946B000C946B000C946B0064
:100070000C946B000C946B000C946B000C946B0054
:100080000C946B000C946B000C946B006364696EB1
:100090006F70737578585B0011241FBECFEFD0E1ED
:1000A000DEBFCDBF11E0A0E0B1E0EAEDFDE100E090
:1000B0000BBF02C007900D92AE33B107D9F711E024
:1000C000AEE3B1E001C01D92AC3AB107E1F70E9486
:1000D0008C000C94EB0E0C9400000E9425030E94EF
:1000E0000A01FBCF78940E947201FDCF82E790E075
:1000F0000E94CA028CED93E00E94CA0208950E94F9
:1001000046020E948C020E94A4030E940F060E94D5
:1001100072030E9496000895F8940E947F000E9446
:1001200076000E946D0080E090E008958091480183
:1001300090914901029690933F0180933E018EE099
:1001400083BF8EE381BF12BE10BE82E087BF0895D9
:100150000F920FB6F8940F921F9211242F923F9294
:100160004F925F926F927F928F929F92AF92BF92C7
:10017000CF92DF92EF92FF920F931F932F933F93B3
:100180004F935F936F937F938F939F93AF93BF939F
:10019000CF93DF93EF93FF93A0913E01B0913F0186
:1001A0000DB60D920EB60D920E94ED02809148019F
:1001B00090914901029690933F0180933E01A09156
:1001C0003E01B0913F01CD91CDBFDD91DEBFFF91EA
:1001D000EF91DF91CF91BF91AF919F918F917F91DF
:1001E0006F915F914F913F912F911F910F91FF90D0
:1001F000EF90DF90CF90BF90AF909F908F907F90C7
:100200006F905F904F903F902F901F900F900FBE78
:100210000F9008950F920FB6F8940F921F92112429
:100220002F923F924F925F926F927F928F929F9206
:10023000AF92BF92CF92DF92EF92FF920F931F93F4
:100240002F933F934F935F936F937F938F939F93DE
:10025000AF93BF93CF93DF93EF93FF93A0913E01B2
:10026000B0913F010DB60D920EB60D92E09148018E
:10027000F091490182E281830E94ED028091480160
:1002800090914901029690933F0180933E01A09185
:100290003E01B0913F01CD91CDBFDD91DEBFFF9119
:1002A000EF91DF91CF91BF91AF919F918F917F910E
:1002B0006F915F914F913F912F911F910F91FF90FF
:1002C000EF90DF90CF90BF90AF909F908F907F90F6
:1002D0006F905F904F903F902F901F900F900FBEA8
:1002E0000F9008950F920FB6F8940F921F92112459
:1002F0002F923F924F925F926F927F928F929F9236
:10030000AF92BF92CF92DF92EF92FF920F931F9323
:100310002F933F934F935F936F937F938F939F930D
:10032000AF93BF93CF93DF93EF93FF93A0913E01E1
:10033000B0913F010DB60D920EB60D92E0914801BD
:10034000F091490181E281830E94ED028091480190
:1003500090914901029690933F0180933E01A091B4
:100360003E01B0913F01CD91CDBFDD91DEBFFF9148
:10037000EF91DF91CF91BF91AF919F918F917F913D
:100380006F915F914F913F912F911F910F91FF902E
:10039000EF90DF90CF90BF90AF909F908F907F9025
:1003A0006F905F904F903F902F901F900F900FBED7
:1003B0000F90089578940F920FB6F8940F921F92B1
:1003C00011242F923F924F925F926F927F928F9261
:1003D0009F92AF92BF92CF92DF92EF92FF920F93D4
:1003E0001F932F933F934F935F936F937F938F93BD
:1003F0009F93AF93BF93CF93DF93EF93FF93A0911E
:100400003E01B0913F010DB60D920EB60D92F894DB
:10041000E0914801F091490181E281830E94B0039B
:100420000E94ED02809148019091490102969093BB
:100430003F0180933E01A0913E01B0913F01CD91DB
:10044000CDBFDD91DEBFFF91EF91DF91CF91BF91E5
:10045000AF919F918F917F916F915F914F913F915C
:100460002F911F910F91FF90EF90DF90CF90BF9051
:10047000AF909F908F907F906F905F904F903F9044
:100480002F901F900F900FBE0F9018950895FC01AC
:100490002081318120583F4FC9010895FC01A0817E
:1004A000B18180E8FD0111928A95E9F708950F93D3
:1004B0001F938C01DC01EC911196FC9180E8DF0127
:1004C0001D928A95E9F7F801808191810E94500878
:1004D000C8010E9450081F910F910895CF93DF9398
:1004E00082E090E00E94A307EC011982188280E864
:1004F00090E00E94A307FC0199838883009719F478
:10050000C0E0D0E005C080E8DF011D928A95E9F7E0
:10051000CE01DF91CF9108951092900089E189B9C1
:100520001BB886E08093950088E18AB980E091E06D
:100530009093A7018093A6018EE091E09093A9018A
:100540008093A80108955D9BFECF8CB980E090E078
:1005500008955F9BFECF8CB190E00895E0919E01DD
:10056000F0919F0120919A0130919B0141E20EC0D0
:100570008181823251F486819781009731F0019711
:1005800097838683892B09F441833A96E217F30710
:1005900079F70895AC01E0919E01F0919F012091BF
:1005A0009A0130919B0109C08181803429F45187DF
:1005B000408780E1818306C03A96E217F307A1F7EE
:1005C000E0E0F0E0CF010895F8940E94CA02789428
:1005D000089521E4FC012183089520919E0130912A
:1005E0009F01265F3F4F60919A0170919B01F90135
:1005F00006C081818031F1F08134E1F03A96E6174E
:10060000F707B9F74091480150914901FA0103C039
:100610008181813249F03A96E617F707C9F7F90167
:1006200006C08181813211F480E209C03A964E17EA
:100630005F07B8F7E0919C01F0919D0181E2818311
:10064000F0934901E09348010895EF92FF920F93D0
:100650001F93CF93DF93F8948FE593E0E92EC4E5E1
:10066000D1E020E4F22E182F01E21EC089818134EE
:1006700039F48C819D810E9457021F821E82F9826B
:100680008981803181F40E946E029D838C830E9457
:1006900047029C01FC0112933197E08224523040C2
:1006A0002A833B8309832A9681E0CA39D807F1F669
:1006B000DF91CF911F910F91FF90EF900895789463
:1006C000E0914801F09149010084F185E02D099500
:1006D000F894E0914801F091490181E481830E94FE
:1006E000A8000895CF93DF93AAE4B1E080E02AE068
:1006F00090E4ED01322F19923A95E9F78C93119617
:100700009C93119717961C921E9216978F5F1A96BC
:10071000883079F78AE491E090939D0180939C0161
:1007200020E220934B0190934901809348019093DC
:100730009F0180939E018AE991E090939B018093B1
:100740009A01DF91CF9108950895F894E0914801BE
:10075000F0914901978386830E940A017894089555
:100760000E94AE02089590E007C00F920F900F9282
:100770000F900F920F909F5F9817B8F308950F9303
:100780001F93CF93DF938C01C0E0D0E00DC08AEFC0
:100790000E94B3038AEF0E94B3038AEF0E94B3035F
:1007A0008AEF0E94B3032196C017D10784F3DF912B
:1007B000CF911F910F91089589E496E00E94E40281
:1007C00080E397E00E94E40286E795E00E94E4025D
:1007D0008DE294E00E94E40281EF93E00E94E40243
:1007E000089588EE93E00E94A503809144019091C2
:1007F0004501019660E177E20E947C079C018093AD
:10080000440130934501F89460E177E20E947C074F
:1008100068EE73E00E947C0760934001C90168EEB6
:1008200073E00E947C0764E670E00E947C0760939E
:100830004101C90164E670E00E947C076AE070E053
:100840000E947C0760934201C9016AE070E00E9447
:100850007C07809343017894C4CF0F931F93CF9369
:10086000DF938FEF8ABB8FE084BB83E080936400CB
:1008700010E00FE0C1E0D0E01F5F137005BB812FD7
:1008800090E0FC01E05CFE4FE081F0E0E45EFE4FB2
:1008900020812BBB9E01012E02C0220F331F0A9420
:1008A000E2F7C901809585BB0E947201E5CFFC018A
:1008B00073836283558344830895CF93DF93EC0160
:1008C0008A819B818A30910531F00B9759F40E94FF
:1008D00036070E946D0688EC90E09B838A831D8218
:1008E0001C820AC021E931E03B832A8381E090E049
:1008F0009D838C833F832E83DF91CF910895EF9268
:10090000FF921F93CF93DF93EC018DB79EB70897AB
:100910000FB6F8949EBF0FBE8DBFEDB7FEB73196F0
:1009200086E291E0ADB7BEB712969C938E93119775
:1009300088819981938382838A819B819583848333
:100940008C819D81978386830E94A80810E0EDB773
:10095000FEB738960FB6F894FEBF0FBEEDBF9FE20C
:10096000E92E91E0F92E1AC000D000D0ADB7BEB785
:100970001296FC92EE9211973396EE0FFF1FEC0F3A
:10098000FD1F8081918114969C938E9313970E94F2
:10099000A8081F5F0F900F900F900F90E12FF0E0CD
:1009A0008C819D81E817F907FCF283E391E00E94B6
:1009B000BA08DF91CF911F91FF90EF900895DF93D8
:1009C000CF9300D0CDB7DEB700D000D085E391E063
:1009D000EDB7FEB792838183CE0101969483838322
:1009E0000E94EF080F900F900F900F9089819A81CD
:1009F0000F900F90CF91DF9108958F929F92AF92B9
:100A0000BF92CF92DF92EF92FF920F931F93DF93EB
:100A1000CF9300D0CDB7DEB76C0100D000D005E396
:100A200011E0EDB7FEB7128301837E010894E11C4B
:100A3000F11CF482E3820E94EF0889819A81F60119
:100A400091838083EDB7FEB712830183F482E38242
:100A50000E94EF0889819A81F60193838283EDB722
:100A6000FEB712830183F482E3820E94EF0889813A
:100A70009A81F60195838483BB240F900F900F9089
:100A80000F904801AE2CEF2C1AC000D000D0EDB76B
:100A9000FEB781829282A382E4820E94EF080D5FFA
:100AA0001F4F000F111F0C0D1D1D89819A81F80128
:100AB00091838083B3940F900F900F900F900B2D24
:100AC00010E0F6018481958108171907F4F20F9060
:100AD0000F90CF91DF911F910F91FF90EF90DF90DA
:100AE000CF90BF90AF909F908F9008951F93CF931A
:100AF000DF938CE290E00E94A307FC019093A10198
:100B00008093A001118210828DE594E0938382830B
:100B100084E190E09583848387EB96E097838683D6
:100B200085E190E09187808787E197E093878287CE
:100B30008EE190E09587848786EA96E0978786879E
:100B40008FE190E0918B808B83E996E0938B828B91
:100B500088E290E0958B848B82E896E0978B868B79
:100B600089E290E0918F808F84E796E0938F828F67
:100B700082E390E0958F848F8BE697E0978F868F46
:100B800083E390E091A380A389E497E093A382A3F9
:100B900084E390E095A384A38AE597E097A386A3D6
:100BA00085E390E091A780A788E397E093A782A7C9
:100BB00086E190E00E94A307EC0186E1FE0111921C
:100BC0008A95E9F7CE010E94FD042A813B81E091DC
:100BD000A001F091A101349611E0808191818217EA
:100BE000930751F4F8940280F381E02DCE0109952A
:100BF00078941B3081F404C01F5F34961B3069F772
:100C0000F894E091A001F091A1010280F381E02D20
:100C1000CE0109957894CE010E947F04D3CF1BBAF0
:100C20001ABA18BA17BA15BA14BA12BA11BA13B84E
:100C300012B8109262001092610010926500E4E612
:100C4000F0E0108280818160808380818260808377
:100C50000895882331F48091650081608093650058
:100C60000895813029F48091650082608093650049
:100C70000895882331F4809165008E7F809365000C
:100C80000895813029F4809165008D7F80936500FF
:100C90000895F894A1E6B0E01C92E2E6F0E08081CD
:100CA0008068808380818F7C80832FEF2C9317BA9C
:100CB0001DBC1CBC80E29EE497BD86BD8CED95E01A
:100CC0009BBD8ABD99BD88BD80EA8FBD82E18EBD86
:100CD00010927A0027BB78940895E2E6F0E08081D4
:100CE0008F77808317BA0895FC0188EC90E0938396
:100CF000828315821482F8948681978199BD88BD7C
:100D0000789408950F931F938C0168EC70E041E094
:100D100050E00E94570488B599B5F80197838683FF
:100D20001F910F9108950F931F938C0168EC70E051
:100D300040E050E00E945704F894F80186819781C2
:100D40009BBD8ABD78941F910F9108950F931F93B7
:100D50008C0168EC70E041E050E00E9457048AB5D5
:100D60009BB5F801978386831F910F9108950F9388
:100D70001F938C0168EC70E041E050E00E94570442
:100D80008091460190914701F801978386831F91D6
:100D90000F910895EF92FF920F931F93CF93DF93DC
:100DA000EC018B017894181619064CF480916200BE
:100DB0008D7F8093620080916200877F0AC00097D8
:100DC00051F08091620082608093620080916200A5
:100DD00088608093620080914601909147018C0F5A
:100DE0009D1F9093470180934601EE24E39484E095
:100DF000F82E13C0809162008E258093620080914E
:100E000062008F25809362001C161D0614F4219742
:100E100001C02196C8010E94A503209759F7F894B4
:100E2000DF91CF911F910F91FF90EF9008950F9355
:100E30001F938C0168EC70E040E050E00E94570482
:100E4000F8018681978120914601309147016085A4
:100E50007185821B930B0E94CA061F910F91089502
:100E6000F89412BA8FEF81BB7894089512BA08955E
:100E70000F931F938C0181E00E94390688EC90E06B
:100E8000F801938382831582148291981F910F91A8
:100E900008950F931F938C0180E00E94390688EC1F
:100EA00090E0F801938382831582148290981F91B9
:100EB0000F9108950F931F938C0181E00E942906E2
:100EC00088EC90E0F8019383828315821482919AD2
:100ED0001F910F9108950F931F938C0180E00E9442
:100EE000290688EC90E0F8019383828315821482AE
:100EF000909A1F910F91089597FB092E07260AD00B
:100F000077FD04D00CD006D000201AF470956195BE
:100F10007F4F0895F6F7909581959F4F0895AA1BEE
:100F2000BB1B51E107C0AA1FBB1FA617B70710F0D4
:100F3000A61BB70B881F991F5A95A9F78095909506
:100F4000BC01CD010895CF93DF93BC0182309105A0
:100F500010F462E070E0A091A401B091A501ED0150
:100F6000E0E0F0E040E050E021C088819981861700
:100F7000970769F48A819B81309719F09383828364
:100F800004C09093A5018093A401FE0134C06817AA
:100F9000790738F44115510519F08417950708F4BD
:100FA000AC01FE018A819B819C01E9012097E9F651
:100FB00041155105A9F1CA01861B970B049708F446
:100FC000BA01E0E0F0E02AC08D919C91119784175E
:100FD0009507F9F46417750781F412968D919C9129
:100FE0001397309719F09383828304C09093A501DF
:100FF0008093A401FD0132964FC0CA01861B970B56
:10100000FD01E80FF91F6193719302978D939C93F3
:1010100043C0FD01828193819C01D9011097A1F603
:101020008091A2019091A301892B41F480913A0112
:1010300090913B019093A3018093A20140913C01C8
:1010400050913D014115510541F44DB75EB7809176
:10105000380190913901481B590B2091A201309120
:10106000A30124173507B0F4CA01821B930B86171E
:10107000970780F0AB014E5F5F4F8417950750F0E4
:10108000420F531F5093A3014093A201F9016193B2
:10109000719302C0E0E0F0E0CF01DF91CF910895BD
:1010A000CF93DF93009709F450C0EC0122971B8285
:1010B0001A82A091A401B091A501109709F140E016
:1010C00050E0AC17BD0708F1BB83AA83FE01219154
:1010D0003191E20FF31FAE17BF0779F48D919C9108
:1010E0001197280F391F2E5F3F4F3983288312969F
:1010F0008D919C9113979B838A834115510571F4BF
:10110000D093A501C093A40120C012968D919C910B
:101110001397AD01009711F0DC01D3CFFA01D3830F
:10112000C28321913191E20FF31FCE17DF0769F4DB
:1011300088819981280F391F2E5F3F4FFA01318333
:1011400020838A819B8193838283DF91CF9108954D
:10115000DF93CF93CDB7DEB7FE01359661917191E4
:101160008091A8019091A901AF010E940109CF913E
:10117000DF9108950F931F93CF93DF938C01E0913C
:10118000A801F091A901838181FF21C0C0E0D0E0D6
:101190000DC0E091A801F091A90120853185BF0122
:1011A000F9010995892B11F0CFEFDFEFF80181915B
:1011B0008F01882371F7E091A801F091A9012085A2
:1011C00031858AE0BF01F9010995892B11F0CFEF34
:1011D000DFEFCE01DF91CF911F910F910895DF9343
:1011E000CF93CDB7DEB7FE013596619171918091B5
:1011F000A6019091A701AF010E94B60CCF91DF919B
:1012000008952F923F924F925F926F927F928F92AA
:101210009F92AF92BF92CF92DF92EF92FF920F9385
:101220001F93DF93CF93CDB7DEB72B970FB6F8940C
:10123000DEBF0FBECDBF3C012B015A01FC0117825E
:101240001682838181FD03C06FEF7FEFC6C19AE0F4
:10125000892E1E010894211C311CF3012381F20107
:1012600023FD859123FF81912F01882309F4B2C1C9
:10127000853239F423FD859123FF81912F01853239
:1012800029F490E0B3010E94440EE7CF982FFF2489
:10129000EE249924FFE1FF15D0F09B3269F09C32D7
:1012A00028F4903259F0933291F40EC09D3249F0F7
:1012B000903369F441E024C052E0F52A84E0F82A32
:1012C00028C098E0F92A25C0E0E1FE2A22C0F7FCF8
:1012D00029C0892F80538A3070F4F6FE05C0989C8F
:1012E000902C1124980E15C0E89CE02C1124E80ED7
:1012F000F0E2FF2A0EC09E3229F4F6FC6BC140E4F6
:10130000F42A07C09C3619F450E8F52A02C0983632
:1013100049F4F20123FD959123FF91912F01992327
:1013200009F0B8CF892F8554833018F0805283306C
:1013300038F444E050E0A40EB51E5FE359830FC0BB
:10134000933631F0933779F0933509F056C020C0C9
:10135000F5018081898342E050E0A40EB51E610151
:1013600001E010E012C0F501C080D180F6FC03C09E
:101370006FEF7FEF02C0692D70E042E050E0A40EF5
:10138000B51EC6010E94F70D8C015FE7F52214C05F
:10139000F501C080D180F6FC03C06FEF7FEF02C083
:1013A000692D70E042E050E0A40EB51EC6010E9417
:1013B000EC0D8C0150E8F52AF3FE07C01AC080E25C
:1013C00090E0B3010E94440EEA948E2D90E008173D
:1013D0001907A8F30EC0F601F7FC8591F7FE81917D
:1013E0006F0190E0B3010E94440EE110EA940150B5
:1013F00010400115110579F7EAC0943611F09936BD
:1014000069F5F7FE08C0F5012081318142815381E1
:1014100084E090E00AC0F501808191819C0144271D
:1014200037FD4095542F82E090E0A80EB91E9FE64C
:10143000F92257FF09C050954095309521953F4FAF
:101440004F4F5F4FE0E8FE2ACA01B901A1012AE02F
:1014500030E00E948A0ED82ED21840C0953729F469
:101460001F2D1F7E2AE030E01DC01F2D197F9F36E3
:1014700061F0903720F4983509F0ACC00FC0903778
:1014800039F0983709F0A6C004C028E030E00AC05F
:10149000106114FD146020E130E004C014FD1660FA
:1014A00020E132E017FF08C0F5016081718182817F
:1014B000938144E050E008C0F50180819181BC0136
:1014C00080E090E042E050E0A40EB51EA1010E9431
:1014D0008A0ED82ED2188FE7F82EF122F6FE0BC016
:1014E0005EEFF522D91438F4F4FE07C0F2FC05C013
:1014F0008FEEF82202C01D2D01C0192DF4FE0DC083
:10150000FE01ED0DF11D8081803319F499EEF92271
:1015100008C01F5FF2FE05C003C08F2D867809F05A
:101520001F5F0F2DF3FC14C0F0FE0FC01E1510F04E
:101530009D2C0BC09D2C9E0C911A1E2D06C080E286
:1015400090E0B3010E94440E1F5F1E15C0F304C05B
:101550001E1510F4E11A01C0EE2404FF0FC080E351
:1015600090E0B3010E94440E02FF1DC001FD03C0C4
:1015700088E790E00EC088E590E00BC0802F867869
:1015800091F001FF02C08BE201C080E2F7FC8DE226
:1015900090E0B3010E94440E06C080E390E0B301E6
:1015A0000E94440E9A94D914C0F3DA94F101ED0D1F
:1015B000F11D808190E0B3010E94440EDD20A9F767
:1015C00006C080E290E0B3010E94440EEA94EE204F
:1015D000C1F743CEF30166817781CB012B960FB61D
:1015E000F894DEBF0FBECDBFCF91DF911F910F9159
:1015F000FF90EF90DF90CF90BF90AF909F908F9033
:101600007F906F905F904F903F902F900895FC01D6
:1016100020FD08C023FD05C022FF02C07383628342
:10162000518340830895EF92FF920F931F9344FFDD
:1016300002C033E011C046FF02C034E00DC0DB0140
:10164000FC01AA0FBB1FEE1FFF1F1094D1F76A0FFA
:101650007B1F8E1F9F1F31E0660F771F881F991F0A
:101660003150D1F77B018C01E20EF11C011D111DDF
:10167000A8019701B701CA011F910F91FF90EF9048
:1016800008950F931F93CF93DF938C01C8010E949D
:10169000020EEC0197FD08C00E94D90D892BB1F70D
:1016A000CE01B8010E94700ECE01DF91CF911F9143
:1016B0000F910895AF92BF92CF92DF92EF92FF9277
:1016C0000F931F93CF93DF93EC01C62E5A01122F75
:1016D0000E94020EAC018B3219F08D3251F4106869
:1016E000CA9409F46DC0CE010E94020EAC0197FDB0
:1016F00067C06DEFD62ED1228D2D807301F540335A
:10170000F1F4CA9409F447C0CE010E94020EAC0164
:1017100097FD41C082E0D82A483711F0483559F486
:1017200080E4D82ACA94B9F1CE010E94020EAC011D
:1017300099232CF430C0D6FC02C080E1D82AEE24D4
:10174000FF248701242F2053283088F0D4FC09C0BF
:101750002A3068F0D6FE05C02F7D822F8151863059
:1017600028F0CA01BE010E94700E12C02750C801A5
:10177000B7014D2D0E94130B7B018C0182E0D82A0A
:10178000CA9461F0CE010E94020EAC0197FFDACF3D
:10179000D1FC04C015C0EE24FF248701D7FE08C089
:1017A00010950095F094E094E11CF11C011D111DB1
:1017B000C501B801A7012D2D0E94070B81E001C0D2
:1017C00080E0DF91CF911F910F91FF90EF90DF901C
:1017D000CF90BF90AF9008956F927F928F929F921B
:1017E000AF92BF92CF92DF92EF92FF920F931F932F
:1017F000DF93CF93CDB7DEB7A0970FB6F894DEBFD7
:101800000FBECDBF6C01A62E8A017901FE01319673
:1018100080E2DF011D928A95E9F770E030E060E038
:1018200040E050E04F01A1E0B0E0F6018381F70114
:1018300083FD259183FF21917F01222309F47EC03E
:101840002E3519F44115510569F1872F90E0841761
:10185000950744F42D3551F12D3221F4332329F429
:1018600031E021C0332309F4622F322F832F869574
:1018700086958695F401E80FF11D832F87703D0151
:1018800002C0660C771C8A95E2F720812629208306
:10189000361711F430E007C0361710F43F5FE6CF7B
:1018A0003150E4CF71E04F5F5F4FBFCF332319F06A
:1018B0008E8180628E83772359F0FE0131969E01DE
:1018C0002F5D3F4F808180958193E217F307D1F719
:1018D000BB24B3944E010894811C911CC6010E9444
:1018E000020EAC0197FD22C0869586958695F4017F
:1018F000E80FF11D808190E09A012770307002C0DE
:10190000959587952A95E2F780FD05C0CA01B60135
:101910000E94700E0BC00115110519F0D8014D93EE
:101920008D01AA94BB24AA20C9F602C0BB2031F4C1
:101930000115110529F0F801108202C0EE24FF24E0
:10194000C701A0960FB6F894DEBF0FBECDBFCF91F2
:10195000DF911F910F91FF90EF90DF90CF90BF909C
:10196000AF909F908F907F906F9008956F927F922D
:101970008F929F92AF92BF92CF92DF92EF92FF929F
:101980000F931F93CF93DF935C016B013A01FC012E
:10199000178216828824EAC0812F90E00E94D90D18
:1019A000892B21F0C5010E94410BE0C0153249F49A
:1019B000F601F3FC6591F3FE61916F01653269F404
:1019C00015E2C5010E94020E97FDDCC0181709F44C
:1019D000CDC0B5010E94700EDAC06A3219F0162F20
:1019E00000E006C0F3FC1591F3FE11916F0101E0D8
:1019F00099240FC00260692D70E080E090E040E221
:101A00000E94130B962EF601F3FC1591F3FE119133
:101A10006F01212F20532A3068F301FD03C0992460
:101A20009A9403C0992009F4B2C0183621F01C36EC
:101A300099F4F6010BC0F601F3FC6591F3FE619198
:101A4000683619F06F01162F07C008600460F3FCB8
:101A50001591F3FE11916F01112309F498C08CE8E0
:101A600090E0612F70E00E94E10D892B09F48FC096
:101A7000802F00FF03C0EE24FF2407C0F301E080A5
:101A8000F18022E030E0620E731E1E3651F4F50143
:101A90004681578160E070E0C701202F0E94070B4C
:101AA00065C0133691F481FD02C099249394C50159
:101AB0000E94020E97FD66C0E114F10419F0F701CF
:101AC00081937F019A9499F74FC01B3559F4C50152
:101AD000692DA70196010E94EC0B6C01009709F09B
:101AE00043C03DC0C5010E94410B97FD4BC01F364E
:101AF00059F1103728F4143629F1193639F527C071
:101B0000133719F0153711F51DC0C5010E94020EDB
:101B1000EC0197FD11C00E94D90D892B29F0CE014F
:101B2000B5010E94700E08C0E114F10419F0F7012C
:101B3000C1937F019A9449F7E114F104A9F0F701E8
:101B4000108212C0006203C0006101C00064C501C0
:101B5000692DA701202F0E945A0B882329F4F50133
:101B60008381807379F413C000FF8394F501F380BF
:101B7000F601F3FC1591F3FE11916F01112309F0A9
:101B80000BCF05C0882019F42FEF3FEF02C0282D9E
:101B900030E0C901DF91CF911F910F91FF90EF903D
:101BA000DF90CF90BF90AF909F908F907F906F907D
:101BB000089591110DC1803219F089508550D0F7E8
:101BC0000895FC010590061621F00020D9F7C00108
:101BD00008953197CF010895FC0105906150704040
:101BE0000110D8F7809590958E0F9F1F0895FC01E6
:101BF0006150704001900110D8F7809590958E0F3C
:101C00009F1F0895CF93DF93EC014B8140FF1AC0D3
:101C100046FF0AC04F7B4B838E819F8101969F8335
:101C20008E838A81282F2BC042FF13C0E881F9815F
:101C30008081282F332727FD30952115310529F480
:101C400040624B832FEF3FEF1BC03196F983E8834F
:101C500011C0EA85FB85CE0109959C0197FF0AC05A
:101C60009B812F5F3F4F11F080E201C080E1892B03
:101C70008B83E8CF8E819F8101969F838E8330E096
:101C8000C901DF91CF9108950F931F93CF93DF93F5
:101C90008C01EB018B8181FF1BC082FF0DC02E8167
:101CA0003F818C819D812817390764F4E881F9818F
:101CB0000193F983E88306C0E885F985802F0995AB
:101CC000892B31F48E819F8101969F838E8302C080
:101CD0000FEF1FEFC801DF91CF911F910F91089572
:101CE0009C01FB01838180FF11C086FD0FC09FEF27
:101CF0002F3F390759F0228380648F7D838386814B
:101D0000978101979783868330E002C02FEF3FEFE2
:101D1000C9010895FA01AA27283051F1203181F133
:101D2000E8946F936E7F6E5F7F4F8F4F9F4FAF4FE3
:101D3000B1E03ED0B4E03CD0670F781F891F9A1FF6
:101D4000A11D680F791F8A1F911DA11D6A0F711DAA
:101D5000811D911DA11D20D009F468943F912AE0B6
:101D6000269F11243019305D3193DEF6CF0108959E
:101D7000462F4770405D4193B3E00FD0C9F7F6CFCF
:101D8000462F4F70405D4A3318F0495D31FD405297
:101D9000419302D0A9F7EACFB4E0A695979587952D
:101DA00077956795BA95C9F700976105710508950C
:101DB0009B01AC010A2E06945795479537952795B8
:101DC000BA95C9F7620F731F841F951FA01D089550
:0A1DD000992788270895F894FFCFA3
:101DDA0000000001000000000000A902000000004D
:101DEA00000200000000A302000000003F065B4F53
:101DFA00666D7D277F672564202564202564002081
:0E1E0A0025640021002564002000AC010000CA
:00000001FF
