:100000000C9446000C9465000C9465000C946500FB
:100010000C9465000C9465000C9465000C946500CC
:100020000C9465000C9465000C9465000C946500BC
:100030000C9465000C9465000C9465000C9494017C
:100040000C9465000C9465000C9465000C9465009C
:100050000C9465000C9465000C9465000C9465008C
:100060000C9465000C9465000C9465000C9465007C
:100070000C9465000C9465000C9465000C9465006C
:100080000C9465000C9465000C94650011241FBE4F
:10009000CFEFD0E1DEBFCDBF11E0A0E0B1E0E0E9FD
:1000A000F4E000E00BBF02C007900D92A030B10752
:1000B000D9F711E0A0E0B1E001C01D92A430B10772
:1000C000E1F70E9467000C9446020C940000F8943B
:1000D0000E9474000E948B000E9471010E948C009B
:1000E00078940E941001FDCF1BBA1ABA18BA17BA39
:1000F00015BA14BA12BA11BA13B812B81092620033
:10010000E1E6F0E0108280818FEF808397B387BBB8
:1001100091B381BB089508951092900083E389B94B
:100120001BB886E08093950088E18AB908955D9BAD
:10013000FECF8CB908955F9BFECF8CB108955D9B77
:10014000FECF9CB95D9BFECF8CB908955F9BFECF1F
:100150003CB15F9BFECF2CB1932F80E030E0282B89
:10016000392BC9010895FC0192818AE282831382AE
:100170009F31B1F1903280F4943131F1953130F406
:100180009A30D1F09B3009F047C01AC0953101F187
:100190009E3109F041C020C0923371F1933328F4AD
:1001A000983211F19932C1F523C0943369F1943337
:1001B00038F1953389F52CC0CF010E94FA010895DA
:1001C000CF010E94FB010895CF010E9436020895DD
:1001D000CF010E9427020895CF010E940B020895CB
:1001E000CF010E9413020895CF010E9419020895C1
:1001F000CF010E9421020895CF010E9403020895B9
:10020000CF010E9405020895CF010E9407020895C0
:10021000CF010E940902089585E682831382089522
:10022000CF92DF92EF92FF920F931F93DF93CF93C2
:10023000CDB7DEB764970FB6F894DEBF0FBECDBF63
:100240000E94A6005F9BFECF2CB15F9BFECF9A83DE
:1002500089832B838CB18C8385E0C82ED12CCC0E66
:10026000DD1E760100E010E008C00E94A600F70144
:10027000819391937F010F5F1F4F8C8190E008174E
:1002800019079CF3CE0101960E94B30089819A81DF
:100290000E949F008B815D9BFECF8CB98C815D9B02
:1002A000FECF8CB900E010E008C0F6018191919179
:1002B0006F010E949F000F5F1F4F8C8190E0081715
:1002C00019079CF364960FB6F894DEBF0FBECDBF3E
:1002D000CF91DF911F910F91FF90EF90DF90CF9022
:1002E0000895909891988FE083BF12BE8EE381BFEE
:1002F00087B7826087BF1DBC1CBC80E29EE497BDAF
:1003000086BD8CED95E09BBD8ABD99BD88BD80EA18
:100310008FBD82E18EBD87B787BF16BEE2E6F0E0F3
:1003200080818068808308951F920F920FB60F928C
:1003300011242F933F938F939F932091000130912D
:10034000010180910201909103012817390791F171
:1003500080910001909101012091020130910301EF
:10036000821B930B181619068CF480916200826030
:10037000809362008091620091E0892780936200FF
:100380008091000190910101019710C0809162005D
:100390008D7F809362008091620091E08927809335
:1003A00062008091000190910101019690930101FA
:1003B000809300019F918F913F912F910F900FBEDD
:1003C0000F901F9018959093030180930201089558
:1003D000209100013091010180910201909103016F
:1003E00028173907A9F708952091000130910101DC
:1003F000C90108950895E2E6F0E080818F77808357
:10040000919890980895909A089590980895919A47
:10041000089591980895FC0181E083838AB59BB586
:10042000958384830895FC01848195819BBD8ABD59
:100430000895FC0181E0838388B599B59583848311
:100440000895FC018481958199BD88BD08950F931D
:100450001F938C010E94E801F801848195810E941C
:10046000E3010E94E8011F910F9108950F931F93DC
:100470008C010E94E80181E0F80183830E94F4016D
:10048000F801958384831F910F910895F894FFCF0D
:00000001FF
